{
  "_format": "hh-sol-artifact-1",
  "contractName": "POOL",
  "sourceName": "contracts/pool.sol",
  "abi": [
    {
      "inputs": [
        {
          "internalType": "address",
          "name": "_token0",
          "type": "address"
        },
        {
          "internalType": "address",
          "name": "_token1",
          "type": "address"
        }
      ],
      "stateMutability": "nonpayable",
      "type": "constructor"
    },
    {
      "inputs": [
        {
          "internalType": "uint256",
          "name": "_amount0",
          "type": "uint256"
        },
        {
          "internalType": "uint256",
          "name": "_amount1",
          "type": "uint256"
        }
      ],
      "name": "addLiquidity",
      "outputs": [
        {
          "internalType": "uint256",
          "name": "shares",
          "type": "uint256"
        }
      ],
      "stateMutability": "nonpayable",
      "type": "function"
    },
    {
      "inputs": [
        {
          "internalType": "address",
          "name": "",
          "type": "address"
        }
      ],
      "name": "balanceOf",
      "outputs": [
        {
          "internalType": "uint256",
          "name": "",
          "type": "uint256"
        }
      ],
      "stateMutability": "view",
      "type": "function"
    },
    {
      "inputs": [
        {
          "internalType": "uint256",
          "name": "_shares",
          "type": "uint256"
        }
      ],
      "name": "removeLiquidity",
      "outputs": [
        {
          "internalType": "uint256",
          "name": "amount0",
          "type": "uint256"
        },
        {
          "internalType": "uint256",
          "name": "amount1",
          "type": "uint256"
        }
      ],
      "stateMutability": "nonpayable",
      "type": "function"
    },
    {
      "inputs": [],
      "name": "reserve0",
      "outputs": [
        {
          "internalType": "uint256",
          "name": "",
          "type": "uint256"
        }
      ],
      "stateMutability": "view",
      "type": "function"
    },
    {
      "inputs": [],
      "name": "reserve1",
      "outputs": [
        {
          "internalType": "uint256",
          "name": "",
          "type": "uint256"
        }
      ],
      "stateMutability": "view",
      "type": "function"
    },
    {
      "inputs": [
        {
          "internalType": "address",
          "name": "_tokenIn",
          "type": "address"
        },
        {
          "internalType": "address",
          "name": "_reciever",
          "type": "address"
        },
        {
          "internalType": "uint256",
          "name": "_amountIn",
          "type": "uint256"
        }
      ],
      "name": "swap",
      "outputs": [
        {
          "internalType": "uint256",
          "name": "amountOut",
          "type": "uint256"
        }
      ],
      "stateMutability": "nonpayable",
      "type": "function"
    },
    {
      "inputs": [],
      "name": "token0",
      "outputs": [
        {
          "internalType": "contract IERC20",
          "name": "",
          "type": "address"
        }
      ],
      "stateMutability": "view",
      "type": "function"
    },
    {
      "inputs": [],
      "name": "token1",
      "outputs": [
        {
          "internalType": "contract IERC20",
          "name": "",
          "type": "address"
        }
      ],
      "stateMutability": "view",
      "type": "function"
    },
    {
      "inputs": [],
      "name": "totalSupply",
      "outputs": [
        {
          "internalType": "uint256",
          "name": "",
          "type": "uint256"
        }
      ],
      "stateMutability": "view",
      "type": "function"
    }
  ],
  "bytecode": "0x60c06040523480156200001157600080fd5b506040516200189338038062001893833981810160405281019062000037919062000111565b8173ffffffffffffffffffffffffffffffffffffffff1660808173ffffffffffffffffffffffffffffffffffffffff16815250508073ffffffffffffffffffffffffffffffffffffffff1660a08173ffffffffffffffffffffffffffffffffffffffff1681525050505062000158565b600080fd5b600073ffffffffffffffffffffffffffffffffffffffff82169050919050565b6000620000d982620000ac565b9050919050565b620000eb81620000cc565b8114620000f757600080fd5b50565b6000815190506200010b81620000e0565b92915050565b600080604083850312156200012b576200012a620000a7565b5b60006200013b85828601620000fa565b92505060206200014e85828601620000fa565b9150509250929050565b60805160a05161169e620001f5600039600081816102e2015281816104cc015281816106150152818161087a0152818161091f0152818161099a01528181610aca01528181610b380152610d480152600081816101f1015281816102440152818161042d01528181610574015281816107e00152818161094501528181610a6e01528181610aeb01528181610b170152610cae015261169e6000f3fe608060405234801561001057600080fd5b50600436106100935760003560e01c806370a082311161006657806370a08231146101105780639c8f9f23146101405780639cd441da14610171578063d21220a7146101a1578063df791e50146101bf57610093565b80630dfe16811461009857806318160ddd146100b6578063443cb4bc146100d45780635a76f25e146100f2575b600080fd5b6100a06101ef565b6040516100ad9190610ffd565b60405180910390f35b6100be610213565b6040516100cb9190611031565b60405180910390f35b6100dc610219565b6040516100e99190611031565b60405180910390f35b6100fa61021f565b6040516101079190611031565b60405180910390f35b61012a6004803603810190610125919061108f565b610225565b6040516101379190611031565b60405180910390f35b61015a600480360381019061015591906110e8565b61023d565b604051610168929190611115565b60405180910390f35b61018b6004803603810190610186919061113e565b610570565b6040516101989190611031565b60405180910390f35b6101a961091d565b6040516101b69190610ffd565b60405180910390f35b6101d960048036038101906101d4919061117e565b610941565b6040516101e69190611031565b60405180910390f35b7f000000000000000000000000000000000000000000000000000000000000000081565b60025481565b60005481565b60015481565b60036020528060005260406000206000915090505481565b60008060007f000000000000000000000000000000000000000000000000000000000000000073ffffffffffffffffffffffffffffffffffffffff166370a08231306040518263ffffffff1660e01b815260040161029b91906111e0565b602060405180830381865afa1580156102b8573d6000803e3d6000fd5b505050506040513d601f19601f820116820180604052508101906102dc9190611210565b905060007f000000000000000000000000000000000000000000000000000000000000000073ffffffffffffffffffffffffffffffffffffffff166370a08231306040518263ffffffff1660e01b815260040161033991906111e0565b602060405180830381865afa158015610356573d6000803e3d6000fd5b505050506040513d601f19601f8201168201806040525081019061037a9190611210565b9050600254828661038b919061126c565b61039591906112dd565b935060025481866103a6919061126c565b6103b091906112dd565b92506000841180156103c25750600083115b610401576040517f08c379a00000000000000000000000000000000000000000000000000000000081526004016103f89061136b565b60405180910390fd5b61040b3386610df2565b61042b848361041a919061138b565b8483610426919061138b565b610e65565b7f000000000000000000000000000000000000000000000000000000000000000073ffffffffffffffffffffffffffffffffffffffff1663a9059cbb33866040518363ffffffff1660e01b81526004016104869291906113bf565b6020604051808303816000875af11580156104a5573d6000803e3d6000fd5b505050506040513d601f19601f820116820180604052508101906104c99190611420565b507f000000000000000000000000000000000000000000000000000000000000000073ffffffffffffffffffffffffffffffffffffffff1663a9059cbb33856040518363ffffffff1660e01b81526004016105259291906113bf565b6020604051808303816000875af1158015610544573d6000803e3d6000fd5b505050506040513d601f19601f820116820180604052508101906105689190611420565b505050915091565b60007f000000000000000000000000000000000000000000000000000000000000000073ffffffffffffffffffffffffffffffffffffffff166323b872dd3330866040518463ffffffff1660e01b81526004016105cf9392919061144d565b6020604051808303816000875af11580156105ee573d6000803e3d6000fd5b505050506040513d601f19601f820116820180604052508101906106129190611420565b507f000000000000000000000000000000000000000000000000000000000000000073ffffffffffffffffffffffffffffffffffffffff166323b872dd3330856040518463ffffffff1660e01b81526004016106709392919061144d565b6020604051808303816000875af115801561068f573d6000803e3d6000fd5b505050506040513d601f19601f820116820180604052508101906106b39190611420565b506000805411806106c657506000600154115b1561072857826001546106d9919061126c565b826000546106e7919061126c565b14610727576040517f08c379a000000000000000000000000000000000000000000000000000000000815260040161071e906114d0565b60405180910390fd5b5b60006002540361074d576107468284610741919061126c565b610e77565b905061078e565b61078b60005460025485610761919061126c565b61076b91906112dd565b6001546002548561077c919061126c565b61078691906112dd565b610ef1565b90505b600081116107d1576040517f08c379a00000000000000000000000000000000000000000000000000000000081526004016107c89061153c565b60405180910390fd5b6107db3382610f0b565b6109177f000000000000000000000000000000000000000000000000000000000000000073ffffffffffffffffffffffffffffffffffffffff166370a08231306040518263ffffffff1660e01b815260040161083791906111e0565b602060405180830381865afa158015610854573d6000803e3d6000fd5b505050506040513d601f19601f820116820180604052508101906108789190611210565b7f000000000000000000000000000000000000000000000000000000000000000073ffffffffffffffffffffffffffffffffffffffff166370a08231306040518263ffffffff1660e01b81526004016108d191906111e0565b602060405180830381865afa1580156108ee573d6000803e3d6000fd5b505050506040513d601f19601f820116820180604052508101906109129190611210565b610e65565b92915050565b7f000000000000000000000000000000000000000000000000000000000000000081565b60007f000000000000000000000000000000000000000000000000000000000000000073ffffffffffffffffffffffffffffffffffffffff168473ffffffffffffffffffffffffffffffffffffffff1614806109e857507f000000000000000000000000000000000000000000000000000000000000000073ffffffffffffffffffffffffffffffffffffffff168473ffffffffffffffffffffffffffffffffffffffff16145b610a27576040517f08c379a0000000000000000000000000000000000000000000000000000000008152600401610a1e906115a8565b60405180910390fd5b60008211610a6a576040517f08c379a0000000000000000000000000000000000000000000000000000000008152600401610a6190611614565b60405180910390fd5b60007f000000000000000000000000000000000000000000000000000000000000000073ffffffffffffffffffffffffffffffffffffffff168573ffffffffffffffffffffffffffffffffffffffff1614905060008060008084610b15577f00000000000000000000000000000000000000000000000000000000000000007f0000000000000000000000000000000000000000000000000000000000000000600154600054610b5e565b7f00000000000000000000000000000000000000000000000000000000000000007f00000000000000000000000000000000000000000000000000000000000000006000546001545b93509350935093508373ffffffffffffffffffffffffffffffffffffffff166323b872dd33308a6040518463ffffffff1660e01b8152600401610ba39392919061144d565b6020604051808303816000875af1158015610bc2573d6000803e3d6000fd5b505050506040513d601f19601f82011682018060405250810190610be69190611420565b5060006103e86103e589610bfa919061126c565b610c0491906112dd565b90508083610c129190611634565b8183610c1e919061126c565b610c2891906112dd565b96508373ffffffffffffffffffffffffffffffffffffffff1663a9059cbb8a896040518363ffffffff1660e01b8152600401610c659291906113bf565b6020604051808303816000875af1158015610c84573d6000803e3d6000fd5b505050506040513d601f19601f82011682018060405250810190610ca89190611420565b50610de57f000000000000000000000000000000000000000000000000000000000000000073ffffffffffffffffffffffffffffffffffffffff166370a08231306040518263ffffffff1660e01b8152600401610d0591906111e0565b602060405180830381865afa158015610d22573d6000803e3d6000fd5b505050506040513d601f19601f82011682018060405250810190610d469190611210565b7f000000000000000000000000000000000000000000000000000000000000000073ffffffffffffffffffffffffffffffffffffffff166370a08231306040518263ffffffff1660e01b8152600401610d9f91906111e0565b602060405180830381865afa158015610dbc573d6000803e3d6000fd5b505050506040513d601f19601f82011682018060405250810190610de09190611210565b610e65565b5050505050509392505050565b80600360008473ffffffffffffffffffffffffffffffffffffffff1673ffffffffffffffffffffffffffffffffffffffff1681526020019081526020016000206000828254610e41919061138b565b925050819055508060026000828254610e5a919061138b565b925050819055505050565b81600081905550806001819055505050565b60006003821115610ede5781905060006001600284610e9691906112dd565b610ea09190611634565b90505b81811015610ed8578091506002818285610ebd91906112dd565b610ec79190611634565b610ed191906112dd565b9050610ea3565b50610eec565b60008214610eeb57600190505b5b919050565b600081831115610f015781610f03565b825b905092915050565b80600360008473ffffffffffffffffffffffffffffffffffffffff1673ffffffffffffffffffffffffffffffffffffffff1681526020019081526020016000206000828254610f5a9190611634565b925050819055508060026000828254610f739190611634565b925050819055505050565b600073ffffffffffffffffffffffffffffffffffffffff82169050919050565b6000819050919050565b6000610fc3610fbe610fb984610f7e565b610f9e565b610f7e565b9050919050565b6000610fd582610fa8565b9050919050565b6000610fe782610fca565b9050919050565b610ff781610fdc565b82525050565b60006020820190506110126000830184610fee565b92915050565b6000819050919050565b61102b81611018565b82525050565b60006020820190506110466000830184611022565b92915050565b600080fd5b600061105c82610f7e565b9050919050565b61106c81611051565b811461107757600080fd5b50565b60008135905061108981611063565b92915050565b6000602082840312156110a5576110a461104c565b5b60006110b38482850161107a565b91505092915050565b6110c581611018565b81146110d057600080fd5b50565b6000813590506110e2816110bc565b92915050565b6000602082840312156110fe576110fd61104c565b5b600061110c848285016110d3565b91505092915050565b600060408201905061112a6000830185611022565b6111376020830184611022565b9392505050565b600080604083850312156111555761115461104c565b5b6000611163858286016110d3565b9250506020611174858286016110d3565b9150509250929050565b6000806000606084860312156111975761119661104c565b5b60006111a58682870161107a565b93505060206111b68682870161107a565b92505060406111c7868287016110d3565b9150509250925092565b6111da81611051565b82525050565b60006020820190506111f560008301846111d1565b92915050565b60008151905061120a816110bc565b92915050565b6000602082840312156112265761122561104c565b5b6000611234848285016111fb565b91505092915050565b7f4e487b7100000000000000000000000000000000000000000000000000000000600052601160045260246000fd5b600061127782611018565b915061128283611018565b925082820261129081611018565b915082820484148315176112a7576112a661123d565b5b5092915050565b7f4e487b7100000000000000000000000000000000000000000000000000000000600052601260045260246000fd5b60006112e882611018565b91506112f383611018565b925082611303576113026112ae565b5b828204905092915050565b600082825260208201905092915050565b7f616d6f756e7430206f7220616d6f756e7431203d203000000000000000000000600082015250565b600061135560168361130e565b91506113608261131f565b602082019050919050565b6000602082019050818103600083015261138481611348565b9050919050565b600061139682611018565b91506113a183611018565b92508282039050818111156113b9576113b861123d565b5b92915050565b60006040820190506113d460008301856111d1565b6113e16020830184611022565b9392505050565b60008115159050919050565b6113fd816113e8565b811461140857600080fd5b50565b60008151905061141a816113f4565b92915050565b6000602082840312156114365761143561104c565b5b60006114448482850161140b565b91505092915050565b600060608201905061146260008301866111d1565b61146f60208301856111d1565b61147c6040830184611022565b949350505050565b7f78202f207920213d206478202f20647900000000000000000000000000000000600082015250565b60006114ba60108361130e565b91506114c582611484565b602082019050919050565b600060208201905081810360008301526114e9816114ad565b9050919050565b7f736861726573203d203000000000000000000000000000000000000000000000600082015250565b6000611526600a8361130e565b9150611531826114f0565b602082019050919050565b6000602082019050818103600083015261155581611519565b9050919050565b7f696e76616c696420746f6b656e00000000000000000000000000000000000000600082015250565b6000611592600d8361130e565b915061159d8261155c565b602082019050919050565b600060208201905081810360008301526115c181611585565b9050919050565b7f616d6f756e7420696e203d203000000000000000000000000000000000000000600082015250565b60006115fe600d8361130e565b9150611609826115c8565b602082019050919050565b6000602082019050818103600083015261162d816115f1565b9050919050565b600061163f82611018565b915061164a83611018565b92508282019050808211156116625761166161123d565b5b9291505056fea2646970667358221220aec91d645304b263d3e42f129bc5c111c626c4fcec3822d5e56e44f58173891464736f6c63430008130033",
  "linkReferences": {},
  "deployedLinkReferences": {}
}